:1000000014C01BC01AC019C018C017C017C015C033
:1000100014C013C012C011C010C00FC00EC00DC05C
:100020000CC00BC00AC009C008C011241FBECFE518
:10003000D2E0DEBFCDBF14D025C0E2CF1F920F9219
:100040000FB60F9211248F939F9392B381E089276B
:1000500082BB9F918F910F900FBE0F901F901895AC
:10006000F8948EB583608EBD80E792E09BBD8ABD1B
:100070008EB588608EBD89B7806189BF7894889A73
:08008000909AFFCFF894FFCF26
:00000001FF
