:020000040000FA
:100000000C9463000C948B000C948B000C9453069E
:100010000C9453060C9453060C948B000C948B0098
:100020000C948B000C948B000C948B000C948B0024
:100030000C948B000C948B000C948B000C948B0014
:100040000C9409060C948B000C94D7050C94B10504
:100050000C948B000C948B000C948B000C948B00F4
:100060000C948B000C948B0000000008000201002F
:100070000003040700000000000000000000000072
:1000800023002600290000000000240027002A0089
:1000900000000000250028002B00040404040404D0
:1000A0000404020202020202030303030303010227
:1000B00004081020408001020408102001020408F6
:1000C00010201707010A11241FBECFEFD8E0DEBFB2
:1000D000CDBF11E0A0E0B1E0EEE0F5E102C0059097
:1000E0000D92A23FB107D9F723E0A2EFB1E001C022
:1000F0001D92A136B207E1F710E0C2E6D0E004C0DD
:100100002197FE010E94670AC136D107C9F70E94F4
:1001100014080C947A0A0C940000AF92BF92CF920C
:10012000DF92EF92FF920F931F93CF93DF936C01B7
:100130007B018B01040F151FEB015E01AE18BF0898
:10014000C017D10759F06991D601ED91FC9101904A
:10015000F081E02DC6010995892B79F7C501DF9162
:10016000CF911F910F91FF90EF90DF90CF90BF90B4
:10017000AF900895FC01538D448D252F30E0842FDE
:1001800090E0821B930B541710F0CF9608950197BF
:100190000895FC01918D828D981761F0A28DAE0FAC
:1001A000BF2FB11D5D968C91928D9F5F9F73928F33
:1001B00090E008958FEF9FEF0895FC01918D828D5F
:1001C000981731F0828DE80FF11D858D90E008952C
:1001D0008FEF9FEF0895FC01918D228D892F90E084
:1001E000805C9F4F821B91098F73992708958FE33D
:1001F00092E00E94EB0021E0892B09F420E0822F9D
:10020000089580E090E0892B29F00E94F700811189
:100210000C9400000895FC01A48DA80FB92FB11D06
:10022000A35ABF4F2C91848D90E001968F7399272C
:10023000848FA689B7892C93A089B1898C9183700A
:1002400080648C93938D848D981306C00288F38903
:10025000E02D80818F7D80830895EF92FF920F9330
:100260001F93CF93DF93EC0181E0888F9B8D8C8D62
:1002700098131AC0E889F989808185FF15C09FB756
:10028000F894EE89FF896083E889F9898081837019
:10029000806480839FBF81E090E0DF91CF911F91C8
:1002A0000F91FF90EF900895F62E0B8D10E00F5FE9
:1002B0001F4F0F731127E02E8C8D8E110CC00FB6BF
:1002C00007FCFACFE889F989808185FFF5CFCE0157
:1002D0000E940B01F1CFEB8DEC0FFD2FF11DE35AC6
:1002E000FF4FF0829FB7F8940B8FEA89FB898081DA
:1002F0008062CFCFCF93DF93EC01888D8823B9F054
:10030000AA89BB89E889F9898C9185FD03C0808120
:1003100086FD0DC00FB607FCF7CF8C9185FFF2CF9D
:10032000808185FFEDCFCE010E940B01E9CFDF91E7
:10033000CF9108953FB7F89480913B0290913C0291
:10034000A0913D02B0913E0226B5A89B05C02F3F6B
:1003500019F00196A11DB11D3FBFBA2FA92F982FEB
:100360008827BC01CD01620F711D811D911D42E0E6
:10037000660F771F881F991F4A95D1F708952F920E
:100380003F924F925F926F927F928F929F92AF9225
:10039000BF92CF92DF92EF92FF920F931F93CF9372
:1003A000DF932C011A0189013B01D0E0C0E0690113
:1003B000F12CE12CC215D30591F18FB7F894809000
:1003C000370290903802A0903902B0903A028FBF65
:1003D000D20112968D919C91DC01ED91FC910284E9
:1003E000F385E02D099597FF2EC00115110581F3C6
:1003F0002FB7F8948091370290913802A09139027A
:10040000B0913A022FBF88199909AA09BB098C1526
:100410009D05AE05BF05E0F28EEF209709F08C2F09
:10042000DF91CF911F910F91FF90EF90DF90CF90D0
:10043000BF90AF909F908F907F906F905F904F9004
:100440003F902F900895F30181933F012196B2CF01
:10045000AF92BF92CF92DF92EF92FF920F931F93D2
:10046000CF93DF9300D000D01F92CDB7DEB77C01D1
:10047000062FB72E142F690143E050E0BE016F5FD5
:100480007F4F0E94BF01181694F08EEF9FEF0F90E0
:100490000F900F900F900F90DF91CF911F910F91C0
:1004A000FF90EF90DF90CF90BF90AF90089589813B
:1004B000882319F08DEF9FEFEACF8A818111FACF5F
:1004C0008B818F3FB9F7960142E050E0BE016C5F2F
:1004D0007F4FC7010E94BF011816BCF68C819D8119
:1004E000980F41F782508C83181708F448C0F70121
:1004F0001481AA24A394A10E960142E050E0BE010B
:100500006F5F7F4FC7010E94BF0118160CF0BDCF6F
:100510008981853D79F68A818A11CCCF4C8150E062
:100520009601602F7B2DC7010E94BF012C81082EF0
:10053000000C990B2817190609F0A7CF1A52902F13
:10054000E02FFB2D8E2F891B821718F48191180F35
:10055000F9CF960142E050E0BE016F5F7F4FC701C7
:100560000E94BF0118160CF090CF8981180F09F076
:10057000A1CF8A8181119ECF8C8190E088CF8CEFB2
:100580009FEF85CFCF93DF93EC018A819B81DC01C4
:10059000ED91FC910190F081E02D65E509958A814E
:1005A0009B81DC01ED91FC910190F081E02D65E5EE
:1005B00009958A819B81DC01ED91FC910190F0818C
:1005C000E02D60E009958A819B81DC01ED91FC9131
:1005D0000190F081E02D60E009958A819B81DC012A
:1005E000ED91FC910190F081E02D60E009958A8108
:1005F0009B81DC01ED91FC910084F185E02D099552
:100600008A819B81DC01ED91FC910084F185E02DD4
:100610000995892B49F08A819B81DC01ED91FC9140
:100620000284F385E02DEBCFDF91CF910895CF9336
:10063000DF93DC011296ED91FC91138E128E118ED8
:10064000108E178A168A8FE190E0958F848F8485AB
:100650008631E0F521E030E0378B268B2DE130E06C
:10066000318F208F2DE030E0338F228F9091680002
:10067000883008F456C021E08E3008F420E081E094
:1006800001C0880F2A95EAF7892B8093680094852A
:100690002DE630E0983050F02BE630E09E3030F020
:1006A0002CE630E0963110F030E020E0348B238BE4
:1006B000292F30E09830B8F581E001C0880F9A9575
:1006C000EAF7858B848D958D0197F1F7828D938D57
:1006D000892B21F1A0913402B0913502EA17FB0772
:1006E000E9F0109751F05396CD91DC915497988191
:1006F00055968C91809589238883868D8E7F868FF1
:100700001092330210923202F0933502E0933402D9
:10071000A389B4898C919589892B8C93DF91CF9192
:10072000089584E0B1CF9E3040F42850310981E033
:1007300001C0880F2A95EAF7C4CF2E503109F7CFB0
:1007400020913402309135022817390771F49091C5
:10075000320280913302981741F0E0913202F0E0CA
:10076000EE50FE4F808190E008958FEF9FEF089547
:100770000895EF92FF920F931F93CF93DF93DC01C5
:100780005C96ED90FC905D97E114F10479F481E0C2
:1007900090E013969C938E93129790E080E0DF9107
:1007A000CF911F910F91FF90EF9008955196ED9189
:1007B000FC91529750968C915097982F90950FB727
:1007C0005E962C915E97122F127021FD6095F89421
:1007D0002081112319F1282B2083E7012197F1F7BC
:1007E00028E0462F50E0308160FF1AC0382B30835C
:1007F000E7012197F1F7BA0175956795215089F7BF
:10080000112381F08081892380830FBF5C968D91B5
:100810009C910197F1F781E090E0C1CF2923DCCFD3
:100820003923E5CF9081892BEFCF2091340230918D
:1008300035022817390771F4809133022091320272
:1008400090E0805C9F4F821B910960E470E00E9401
:100850001D0A089590E080E00895209134023091BF
:10086000350228173907B9F490913202809133028A
:10087000981789F0E0913202F0E0EE50FE4F80814F
:100880002091320230E02F5F3F4F2F7333272093A8
:10089000320290E008958FEF9FEF089590E080E09E
:1008A0000895FC0101900020E9F73197AF01481B42
:1008B000590BBC018FE392E00C948D008F929F92B4
:1008C000AF92BF920F931F93CF93DF93CDB7DEB755
:1008D000A1970FB6F894DEBF0FBECDBF19A242306C
:1008E00008F44AE08E010F5D1F4F842E912CB12C2D
:1008F000A12CA50194010E94310AE62FB901CA0179
:10090000EA30F4F4E05DD801EE938D01232B242B23
:10091000252B79F790E080E0109719F0CD010E9427
:100920005104A1960FB6F894DEBF0FBECDBFDF9184
:10093000CF911F910F91BF90AF909F908F9008958E
:10094000E95CE1CFCF93DF930E945104EC0186E391
:1009500091E00E9451048C0F9D1FDF91CF9108956B
:100960009F92AF92BF92CF92DF92EF92FF920F933E
:100970001F93CF93DF93CDB7DEB72C970FB6F894C4
:10098000DEBF0FBECDBF7C016B01942EB22EA32E15
:10099000DC0112968D919C91DC01ED91FC9100841B
:1009A000F185E02D0995F70182819381DC01ED91BC
:1009B000FC910084F185E02D0995F701A281B381B6
:1009C000892B41F0ED91FC9111970284F385E02D84
:1009D000CD01E8CFF6018081F7018483ED91FC9190
:1009E00011970190F081E02D60E0CD010995D701CC
:1009F00012968D919C91DC01ED91FC910190F0811A
:100A0000E02D60E00995F70182819381DC01ED9191
:100A1000FC910190F081E02D6FEF0995F701828143
:100A20009381192D100F61E0610FDC01ED91FC91B4
:100A30000190F081E02D0995F70182819381612F6A
:100A40006095DC01ED91FC910190F081E02D09951C
:100A5000F70182819381DC01ED91FC910190F0819D
:100A6000E02D64ED0995F70182819381492D50E0D5
:100A7000DC01ED91FC910280F381E02DB601099536
:100A80009C2DF60114ED8E2F891B891518F4819188
:100A9000180FF9CFF70182819381402F50E0DC01DC
:100AA000ED91FC910280F381E02D6B2D7A2D09955B
:100AB0009B2DEB2DFA2D8E2F891B801718F4819119
:100AC000180FF9CFF70182819381612F6195DC01C5
:100AD000ED91FC910190F081E02D0995F701828163
:100AE0009381DC01ED91FC910190F081E02D60E0BB
:100AF000099586E0E0E0F1E0DE01179601900D92A5
:100B00008A95E1F72AE030E046E050E0BE016F5FF1
:100B10007F4FC7010E94BF0118160CF546E050E058
:100B2000BE01695F7F4FCE0101960E946D0A21E0F0
:100B3000892B09F420E0822F81952C960FB6F8942A
:100B4000DEBF0FBECDBFDF91CF911F910F91FF9000
:100B5000EF90DF90CF90BF90AF909F9008958EEF71
:100B6000ECCF1F920F920FB60F9211242F933F9349
:100B70004F935F936F937F938F939F93AF93BF93A5
:100B8000EF93FF938FE392E00E940B01FF91EF91AF
:100B9000BF91AF919F918F917F916F915F914F9195
:100BA0003F912F910F900FBE0F901F9018951F929D
:100BB0000F920FB60F9211242F938F939F93EF9361
:100BC000FF93E0914F02F09150028081E091550235
:100BD000F091560282FD1BC09081809158028F5F78
:100BE0008F7320915902821741F0E0915802F0E092
:100BF000E15CFD4F958F80935802FF91EF919F919B
:100C00008F912F910F900FBE0F901F90189580819C
:100C1000F4CF1F920F920FB60F9211242F933F9390
:100C20008F939F93AF93BF93809137029091380237
:100C3000A0913902B0913A023091360223E0230F9D
:100C40002D3758F50196A11DB11D209336028093D2
:100C5000370290933802A0933902B0933A02809100
:100C60003B0290913C02A0913D02B0913E02019660
:100C7000A11DB11D80933B0290933C02A0933D02C5
:100C8000B0933E02BF91AF919F918F913F912F9171
:100C90000F900FBE0F901F90189526E8230F029615
:100CA000A11DB11DD2CF1F920F920FB60F9211242A
:100CB0002F933F934F935F936F937F938F939F9364
:100CC000AF93BF93EF93FF93E0913402F09135021D
:100CD000309749F0A685B7858585968D91FF14C01C
:100CE0009C918923A1F4FF91EF91BF91AF919F91C6
:100CF0008F917F916F915F914F913F912F910F90C5
:100D00000FBE0F901F9018959C91892361F7A389BE
:100D1000B4899C918589809589238C93868997894C
:100D20000197F1F7608D718DA685B785558538E0FF
:100D300020E0CB010197F1F7822F90E09595879500
:100D4000282F4C91452309F02068315091F7868D6A
:100D500081FD20958091330290E001968F73992751
:100D600030913202381799F0A0913302B0E0AE50C2
:100D7000BE4F2C9380933302828D938D0197F1F7B0
:100D8000A389B4898C919589892B8C93ACCF868D5E
:100D90008160868FF1CF90E0FC01E859FF4F2491EC
:100DA000FC01E255FF4F3491FC01E656FF4FE49100
:100DB000EE23C9F0222339F0233001F1A8F42130C9
:100DC00019F1223029F1F0E0EE0FFF1FE057FF4F3D
:100DD000A591B4918FB7F894EC91611126C030952C
:100DE0003E233C938FBF08952730A9F02830C9F0E7
:100DF000243049F7809180008F7D03C0809180006E
:100E00008F7780938000DFCF84B58F7784BDDBCF71
:100E100084B58F7DFBCF8091B0008F778093B00039
:100E2000D2CF8091B0008F7DF9CF3E2BDACF0F93D8
:100E30001F93CF93DF93109242021092410288EEEB
:100E400093E0A0E0B0E08093430290934402A0932B
:100E50004502B09346022AE031E0309340022093ED
:100E60003F0225EC30E030934C0220934B0224ECFF
:100E700030E030934E0220934D0220EC30E030936E
:100E8000500220934F0221EC30E030935202209325
:100E9000510222EC30E0309354022093530226ECAE
:100EA00030E030935602209355021092580210926F
:100EB000590210925A0210925B021092450310924E
:100EC00044038093460390934703A0934803B09351
:100ED000490388E291E09093430380934203109288
:100EE00059031092580310925B0310925A03109208
:100EF0005D0310925C0310925F0310925E03609199
:100F000060036E7F6D7F609360036695617081E022
:100F100068278BE00E94CB0649EB50E0FA01649110
:100F200085EA90E0FC012491222399F030E0220F21
:100F3000331FF901EA57FF4FA591B491F901E0572A
:100F4000FF4F259134912FB7F8943C91632B6C930C
:100F50002FBFFA01449140935203FC018491E82F82
:100F6000F0E0EE0FFF1FE057FF4F859194919093B3
:100F700054038093530308EB10E0F8012491C4EA72
:100F8000D0E0FE0184918823C9F090E0880F991F7A
:100F9000FC01EA57FF4FA591B491FC01E057FF4FC8
:100FA000459154913FB7F8949C91822F8095982356
:100FB0009C93FA019081892380833FBF80916003D5
:100FC00081FD04C061E08AE00E94CB068AE0809344
:100FD0004E03F801049100934F03FE01C491EC2FDE
:100FE000F0E0EE0FFF1FE458FF4F8591949190932E
:100FF0005103809350038CE191E090933E038093E2
:101000003D0382E493E09093400380933F0310926A
:1010100041038DE393E090933C0380933B03DF9186
:10102000CF911F910F910895CF93DF9300D000D0FF
:1010300000D01F92CDB7DEB7789484B5826084BDAE
:1010400084B5816084BD85B5826085BD85B58160CC
:1010500085BD80916E00816080936E00109281004A
:101060008091810082608093810080918100816005
:1010700080938100809180008160809380008091C6
:10108000B10084608093B1008091B0008160809352
:10109000B00080917A00846080937A0080917A0019
:1010A000826080937A0080917A00816080937A00D8
:1010B00080917A00806880937A001092C100E0915C
:1010C0004F02F091500212E01083E0914B02F09138
:1010D0004C021082E0914D02F0914E0280E180833B
:1010E00010925702E0915302F091540286E08083FF
:1010F000E0915102F0915202808180618083E09101
:101100005102F0915202808188608083E091510207
:10111000F0915202808180688083E0915102F091C9
:10112000520280818F7D808389E391E00E94A20436
:1011300080913B0390913C03DC01ED91FC91019087
:10114000F081E02D099580913B0390913C03DC01F7
:10115000ED91FC910280F381E02D09951093FB0243
:1011600080913B0390913C03DC01ED91FC91048064
:10117000F581E02D00E030E020E041E06BEF72E02F
:101180000995882329F086E491E00E945104FFCF5D
:1011900080913B0390913C03DC01ED91FC91068032
:1011A000F781E02D28EE33E040E46BEF72E0099523
:1011B00097FDE9CFC090FB02D090FC02DC24CD2447
:1011C000DC24F12CE12CFE2CED2CDC2CCC248091A9
:1011D000FD02C82AFE2CED2CDC2CCC248091FE02D2
:1011E000C82AC114D104E104F10469F28FE591E049
:1011F0000E9451046F2D77278827992740E10E948C
:101200005E0486E391E00E9451048EE691E00E9424
:1012100051046E2D70E090E080E04AE00E945E0490
:101220006EE28FE392E00E942D016D2D70E090E060
:1012300080E04AE00E945E0486E391E00E9451044F
:1012400094E19093FB0281E08093FC029093FD0275
:101250008093FE0280913B0390913C03DC01ED9171
:10126000FC910480F581E02D00E030E020E044E0D6
:101270006BEF72E00995811110C080913B03909152
:101280003C03DC01ED91FC910680F781E02D28EE16
:1012900033E040E46BEF72E009958DE791E00E9446
:1012A000A204FE0131967F011AE4332433942E2EDA
:1012B00090E0C92E90E0D92ED701E7E01D92EA9583
:1012C000E9F71093FB023092FC021092FD0280912C
:1012D0003B0390913C03DC01ED91FC910480F5818E
:1012E000E02D00E030E020E043E06BEF72E0099594
:1012F000811182C080913B0390913C03DC01ED9110
:10130000FC910680F781E02D28EE33E040E46BEF9E
:1013100072E0099597FD70C08091FB02813009F061
:101320006BC090900003A1E0B3E05701F7018E2F4E
:101330008E19891518F48D918193F9CF8FE991E079
:101340000E94A2048DEA91E00E945104692D70E090
:1013500090E080E04AE00E945E048AEB91E00E9407
:10136000A20481EC91E00E9451048A2D8219891512
:1013700070F48DEC91E00E945104F50161915F01E0
:1013800070E090E080E040E10E945E04EECF88E3F0
:1013900091E00E94A2040E949A014B015C0188EE38
:1013A000482E83E0582E612C712C0E949A016819F6
:1013B00079098A099B09683E734081059105A8F364
:1013C000F1E04F1A51086108710828EE820E23E0FF
:1013D000921EA11CB11C411451046104710429F72F
:1013E000C114D10409F468CF0E94F700882309F4DE
:1013F00063CF0E94000060CF81ED91E00E94A204C3
:10140000EFCF88E291E09093430380934203809171
:101410003402909135028254934071F4E091550367
:10142000F0915603908180915703809589238083A2
:101430001092350210923402089597FB072E16F48D
:10144000009407D077FD09D00E94530A07FC05D00D
:101450003EF4909581959F4F0895709561957F4FCB
:101460000895A1E21A2EAA1BBB1BFD010DC0AA1FE5
:10147000BB1FEE1FFF1FA217B307E407F50720F0FD
:10148000A21BB30BE40BF50B661F771F881F991F78
:101490001A9469F760957095809590959B01AC01C1
:1014A000BD01CF010895AA1BBB1B51E107C0AA1FB4
:1014B000BB1FA617B70710F0A61BB70B881F991FF5
:1014C0005A95A9F780959095BC01CD010895EE0F2E
:1014D000FF1F0590F491E02D0994FB01DC0104C08D
:1014E0008D910190801921F441505040C8F7881B1C
:1014F000990B089510E0C2E6D0E004C0FE010E94FE
:10150000670A2196C336D107C9F7F894FFCF0000C8
:10151000FF00FF00000000002D018D00BA007A01DD
:10152000EB00C900DD00000000001703C202B00498
:10153000280200000000B9038D004E04B803150412
:101540002D04A0030D0A0048656C6C6F204D616B83
:10155000657221004469646E27742046696E6420B8
:10156000504E353378204D6F64756C6500466F754D
:101570006E64206368697020504E35004669726D54
:1015800077617265207665722E20005761697469F3
:101590006E6720666F7220616E2049534F3134347C
:1015A0003433412043617264202E2E2E00466F7525
:1015B0006E64204120436172642100554944204CEF
:1015C000656E6774683A200020627974657300550F
:1015D00049442056616C75653A20002030780054EB
:1015E000696D6564206F7574212057616974696E37
:1015F0006720666F72206120636172642E2E2E0058
:107E0000112484B714BE81FFF0D085E080938100F7
:107E100082E08093C00088E18093C10086E0809377
:107E2000C20080E18093C4008EE0C9D0259A86E02C
:107E300020E33CEF91E0309385002093840096BBD3
:107E4000B09BFECF1D9AA8958150A9F7CC24DD24C4
:107E500088248394B5E0AB2EA1E19A2EF3E0BF2EE7
:107E6000A2D0813461F49FD0082FAFD0023811F036
:107E7000013811F484E001C083E08DD089C08234E0
:107E800011F484E103C0853419F485E0A6D080C0E4
:107E9000853579F488D0E82EFF2485D0082F10E0AE
:107EA000102F00270E291F29000F111F8ED06801E7
:107EB0006FC0863521F484E090D080E0DECF843638
:107EC00009F040C070D06FD0082F6DD080E0C81688
:107ED00080E7D80618F4F601B7BEE895C0E0D1E017
:107EE00062D089930C17E1F7F0E0CF16F0E7DF06D8
:107EF00018F0F601B7BEE89568D007B600FCFDCFD4
:107F0000A601A0E0B1E02C9130E011968C91119780
:107F100090E0982F8827822B932B1296FA010C0160
:107F200087BEE89511244E5F5F4FF1E0A038BF0790
:107F300051F7F601A7BEE89507B600FCFDCF97BE46
:107F4000E89526C08437B1F42ED02DD0F82E2BD052
:107F50003CD0F601EF2C8F010F5F1F4F84911BD097
:107F6000EA94F801C1F70894C11CD11CFA94CF0C13
:107F7000D11C0EC0853739F428D08EE10CD085E9AC
:107F80000AD08FE07ACF813511F488E018D01DD067
:107F900080E101D065CF982F8091C00085FFFCCF94
:107FA0009093C60008958091C00087FFFCCF809118
:107FB000C00084FD01C0A8958091C6000895E0E648
:107FC000F0E098E1908380830895EDDF803219F02E
:107FD00088E0F5DFFFCF84E1DECF1F93182FE3DFCA
:107FE0001150E9F7F2DF1F91089580E0E8DFEE27F6
:047FF000FF270994CA
:027FFE00040479
:00000001FF
